{
  "contractName": "RushChapterI",
  "abi": [
    {
      "inputs": [],
      "name": "currentQuantity",
      "outputs": [
        {
          "internalType": "uint8",
          "name": "",
          "type": "uint8"
        }
      ],
      "stateMutability": "view",
      "type": "function"
    },
    {
      "inputs": [
        {
          "internalType": "enum RushChapterI.Dish",
          "name": "",
          "type": "uint8"
        }
      ],
      "name": "dishQuantity",
      "outputs": [
        {
          "internalType": "uint8",
          "name": "",
          "type": "uint8"
        }
      ],
      "stateMutability": "view",
      "type": "function"
    },
    {
      "inputs": [],
      "name": "dishes",
      "outputs": [
        {
          "internalType": "enum RushChapterI.Dish",
          "name": "",
          "type": "uint8"
        }
      ],
      "stateMutability": "view",
      "type": "function"
    },
    {
      "inputs": [
        {
          "internalType": "enum RushChapterI.Dish",
          "name": "_dish",
          "type": "uint8"
        },
        {
          "internalType": "uint8",
          "name": "_quantity",
          "type": "uint8"
        }
      ],
      "name": "getDish",
      "outputs": [
        {
          "internalType": "enum RushChapterI.Dish",
          "name": "",
          "type": "uint8"
        },
        {
          "internalType": "uint8",
          "name": "",
          "type": "uint8"
        },
        {
          "internalType": "uint8",
          "name": "",
          "type": "uint8"
        }
      ],
      "stateMutability": "nonpayable",
      "type": "function"
    },
    {
      "inputs": [
        {
          "internalType": "enum RushChapterI.Dish",
          "name": "_dish",
          "type": "uint8"
        },
        {
          "internalType": "uint8",
          "name": "_quantity",
          "type": "uint8"
        }
      ],
      "name": "fillDish",
      "outputs": [
        {
          "internalType": "uint8",
          "name": "",
          "type": "uint8"
        },
        {
          "internalType": "uint8",
          "name": "",
          "type": "uint8"
        }
      ],
      "stateMutability": "nonpayable",
      "type": "function"
    }
  ],
  "bytecode": "0x608060405234801561001057600080fd5b50610794806100206000396000f3fe608060405234801561001057600080fd5b50600436106100575760003560e01c8063501d96451461005c578063b8e63a0f1461007a578063c612d1fb146100ab578063c79cf758146100c9578063cab6964b146100f9575b600080fd5b61006461012b565b60405161007191906104ad565b60405180910390f35b610094600480360381019061008f919061052b565b61013c565b6040516100a292919061057a565b60405180910390f35b6100b361027c565b6040516100c091906105a3565b60405180910390f35b6100e360048036038101906100de91906105be565b61028f565b6040516100f091906105a3565b60405180910390f35b610113600480360381019061010e919061052b565b6102af565b604051610122939291906105eb565b60405180910390f35b60008054906101000a900460ff1681565b6000806000839050602a81600260009054906101000a900460ff166101619190610651565b60ff16111561018957600260009054906101000a900460ff16602a6101869190610686565b90505b80600160008760048111156101a1576101a0610436565b5b60048111156101b3576101b2610436565b5b815260200190815260200160002060008282829054906101000a900460ff166101dc9190610651565b92506101000a81548160ff021916908360ff16021790555080600260008282829054906101000a900460ff166102129190610651565b92506101000a81548160ff021916908360ff1602179055506001600086600481111561024157610240610436565b5b600481111561025357610252610436565b5b815260200190815260200160002060009054906101000a900460ff168192509250509250929050565b600260009054906101000a900460ff1681565b60016020528060005260406000206000915054906101000a900460ff1681565b60008060008360ff16600160008760048111156102cf576102ce610436565b5b60048111156102e1576102e0610436565b5b815260200190815260200160002060009054906101000a900460ff1660ff161015610341576040517f08c379a00000000000000000000000000000000000000000000000000000000081526004016103389061073e565b60405180910390fd5b836001600087600481111561035957610358610436565b5b600481111561036b5761036a610436565b5b815260200190815260200160002060008282829054906101000a900460ff166103949190610686565b92506101000a81548160ff021916908360ff16021790555083600260008282829054906101000a900460ff166103ca9190610686565b92506101000a81548160ff021916908360ff1602179055508484600160008860048111156103fb576103fa610436565b5b600481111561040d5761040c610436565b5b815260200190815260200160002060009054906101000a900460ff169250925092509250925092565b7f4e487b7100000000000000000000000000000000000000000000000000000000600052602160045260246000fd5b6005811061047657610475610436565b5b50565b600081905061048782610465565b919050565b600061049782610479565b9050919050565b6104a78161048c565b82525050565b60006020820190506104c2600083018461049e565b92915050565b600080fd5b600581106104da57600080fd5b50565b6000813590506104ec816104cd565b92915050565b600060ff82169050919050565b610508816104f2565b811461051357600080fd5b50565b600081359050610525816104ff565b92915050565b60008060408385031215610542576105416104c8565b5b6000610550858286016104dd565b925050602061056185828601610516565b9150509250929050565b610574816104f2565b82525050565b600060408201905061058f600083018561056b565b61059c602083018461056b565b9392505050565b60006020820190506105b8600083018461056b565b92915050565b6000602082840312156105d4576105d36104c8565b5b60006105e2848285016104dd565b91505092915050565b6000606082019050610600600083018661049e565b61060d602083018561056b565b61061a604083018461056b565b949350505050565b7f4e487b7100000000000000000000000000000000000000000000000000000000600052601160045260246000fd5b600061065c826104f2565b9150610667836104f2565b9250828201905060ff8111156106805761067f610622565b5b92915050565b6000610691826104f2565b915061069c836104f2565b9250828203905060ff8111156106b5576106b4610622565b5b92915050565b600082825260208201905092915050565b7f4e6f7420656e6f756768206469736865732c20737472616e676c7920656e6f7560008201527f676820796f752063616e2072656c6f616420796f757273656c66210000000000602082015250565b6000610728603b836106bb565b9150610733826106cc565b604082019050919050565b600060208201905081810360008301526107578161071b565b905091905056fea264697066735822122019d399678b5b87fab82755b88755fdf82285a790c48e459b6f9f6c9890cc232c64736f6c63430008110033",
  "immutableReferences": {},
  "source": "// SPDX-License-Identifier: GPL-3.0\n\npragma solidity ^0.8.4;\n\ncontract RushChapterI {\n\n    enum Dish {\n        ICE_TEA, MARS, LION, FANTA, COCA_COLA\n    }\n\n    uint8 constant MAX_DISHES = 42;\n\n    Dish public dishes;\n    mapping(Dish => uint8) public dishQuantity;\n    uint8 public currentQuantity;\n\n    function getDish(Dish _dish, uint8 _quantity) public returns (Dish, uint8, uint8) {\n        require(dishQuantity[_dish] >= _quantity, \"Not enough dishes, strangly enough you can reload yourself!\");\n        dishQuantity[_dish] -= _quantity;\n        currentQuantity -= _quantity;\n        return (_dish, _quantity, dishQuantity[_dish]);\n    }\n\n    function fillDish(Dish _dish, uint8 _quantity) public returns (uint8, uint8) {\n        uint8 addedQuantity = _quantity;\n        if (currentQuantity + addedQuantity > 42)\n          addedQuantity = MAX_DISHES - currentQuantity;\n        dishQuantity[_dish] += addedQuantity;\n        currentQuantity += addedQuantity;\n        return (dishQuantity[_dish], addedQuantity);\n    }\n}",
  "sourcePath": "/Users/sergioarrighi/Documents/workspace/RushChapterI/contracts/RushChapterI.sol",
  "compiler": {
    "name": "solc",
    "version": "0.8.17+commit.8df45f5f.Emscripten.clang"
  },
  "schemaVersion": "3.4.11",
  "updatedAt": "2023-03-07T12:07:53.748Z",
  "devdoc": {
    "kind": "dev",
    "methods": {},
    "version": 1
  },
  "userdoc": {
    "kind": "user",
    "methods": {},
    "version": 1
  }
}